S00B00006173702E73726563D5
S3150800000038190020950100087902000879020008CD
S3150800001079020008790200087902000879020008C6
S31508000020790200087902000879020008FD03000831
S31508000030790200087902000879020008F702000828
S31508000040F7020008F7020008F7020008F70200089E
S31508000050F7020008F7020008F7020008F70200088E
S31508000060F7020008F7020008F7020008F70200087E
S31508000070F7020008F7020008F7020008F70200086E
S31508000080F7020008F7020008F7020008F70200085E
S31508000090F7020008F7020008F7020008F70200084E
S315080000A0F7020008F7020008F7020008F70200083E
S315080000B0F7020008F7020008F7020008F70200082E
S315080000C0F7020008F7020008F7020008F70200081E
S315080000D0F7020008F7020008F7020008F70200080E
S315080000E0F7020008F7020008F7020008F7020008FE
S315080000F0F7020008F7020008F7020008F7020008EE
S31508000100F7020008F7020008F7020008F7020008DD
S31508000110F7020008F7020008F7020008F7020008CD
S31508000120F7020008F7020008F7020008F7020008BD
S31508000130F7020008F7020008F7020008F7020008AD
S31508000140F7020008F7020008F7020008F70200089D
S31508000150F7020008F7020008F7020008F70200088D
S31508000160F7020008F7020008F7020008F70200087D
S31508000170F7020008F7020008F7020008F70200086D
S31508000180F7020008F7020008F7020008F70200085D
S31508000190F702000871B619484FF47001026842EA7E
S315080001A0010202604FF040401549086015484FF4B7
S315080001B00271026842EA01020260134800B18047F0
S315080001C04FF000001149124A914204D2086001F129
S315080001D004019142FAD30F490F4A914208D20F4BB4
S315080001E00868186001F1040103F104039142F7D38A
S315080001F00B4800B1804702F0C9FAFEE788ED00E037
S3150800020034EF00E014ED00E0BD16000808000020F9
S31508000210083F002098460008A04600080000002075
S31508000220000000002DE9F05FEFF3148010F0040FD2
S3150800023001D02DED108A03B4A6480168C1F818D07C
S31508000240DFF894E2C1F81CE0F8E018BC13F0040FDC
S3150800025001D0BDEC108ABDE8F05F887B10F0040F72
S3150800026008D00869004205D09C490868004201D0B8
S315080002709B480047704700BFEFF31382C2B9EFF3FC
S315080002801180102814D01EF0040F08D0EFF309834C
S3150800029023E9014083F3098801B5184601E001B551
S315080002A06846EFF305838F4951F8232090473DE0D0
S315080002B01EF0040F08D0EFF3098323E9014083F306
S315080002C0098801B5184601E001B56846EFF30583CC
S315080002D0844951F82320904771B60ABC13F0040FDD
S315080002E000D105E0EFF3098202F1080282F30988DA
S315080002F081F311881847EFF311801EF0040F08D018
S31508000300EFF3098323E9014083F3098801B5184609
S3150800031001E001B56846EFF30583724951F82320D9
S31508000320714951F823E08EF31188904771B60ABCDB
S3150800033013F0040F00D108E06C48026842B9EFF3E5
S31508000340098202F1080282F3098881F311881847A5
S315080003504FF0000101604FF0100181F311884FF052
S315080003600101634801604FF000016248016062487C
S315080003704FF08071EFF3098222E90300183A82F3FD
S3150800038009886FF002000047524801685B48026816
S31508000390DAB15B480268914217D0019A12F0100F41
S315080003A001D12DED108A0CB42DE9F00FC1F818D043
S315080003B0DFF850E1C1F81CE040E0BDE8F00F0CBCE6
S315080003C012F0100F01D1BDEC108A887B10F0040FD3
S315080003D00DD0086958B14149086840B14A490868CA
S315080003E010F0010F01D017EE903A02F043FBEFF33D
S315080003F0148323F0040383F3148800DF71B6EFF344
S3150800040009802030B0E8024080F309884FF00000E8
S31508000410374908604FF0000181F3118870473B485F
S31508000420016881F308884FF0100181F3118861B6DD
S315080004304FF0020080F31488BFF36F8FEFF3148335
S3150800044023F0040383F314882D480168214A1160B8
S3150800045019B1D1F818D0D1F81CF04FF0000080F38C
S315080004601488BFF36F8F4FF000044FF010051F4E2E
S315080004701F4F3C6084F3118885F311883068002883
S31508000480F8D034604FF0020080F31488BFF36F8F02
S315080004904FF001023A6017480460D5E74FF00000B4
S315080004A080F31488BFF36F8F194800474FF0000098
S315080004B00F4C206080F31188DFF858E08A6850688E
S315080004C091680847A238002800DC7047643800287D
S315080004D0FCDC7047683E00204B020008643E0020A2
S315080004E0752A00087C40000820420008F43E0020D7
S315080004F0503E0020543E002088030008603E00203D
S315080005006C3E0020BB03000834EF00E0D04300082F
S31508000510AD270008352E00082DE9F041384F394E31
S3150800052082B0394C012201AB0F21104602F086FF3A
S31508000530019BD8070AD49B07F4D50821022002F0AC
S315080005407DFE2146052000F04FFBEBE70121022046
S3150800055002F074FE2D49052000F046FB019B990721
S3150800056007D50821022002F069FE2749052000F078
S315080005703BFB042003F092F8254D1E24012201AB13
S3150800058010460F2102F05AFF019B9A072FD45807ED
S315080005901ED41A07F2D5013C0BD10221084602F0F7
S315080005A04DFE1C49052000F01FFB042003F0E2F86D
S315080005B0B7E707FB04F3B6EB730FDFD3012102207D
S315080005C002F03CFE22462946052000F00DFBD5E741
S315080005D004F11E08104943461E22052000F004FBBC
S315080005E0019B190704F11D04E3D44446C6E7082114
S315080005F0022002F023FE0449052000F0F5FAD4E7AC
S31508000600CDCCCCCC999999190C3B0008FC3A00083A
S315080006104C3B00083C3B0008183B000830B5002559
S3150800062083B001AB01220F21022002F007FF019BD4
S31508000630D8071DD49907F4D53C24022003F02EF8D8
S3150800064001AB01220F21022002F0F8FE019B5A0796
S3150800065006D585F00105284600F078F9019B013C8E
S315080006601B070BD4002CEBD1022003F083F8D8E744
S3150800067013F0020F14BF3C240424DEE7002000F028
S3150800068065F90025F0E700BF08B500F083F9034BCC
S31508000690187000F077F9024B187008BD0A000020A0
S315080006A009000020034B1878013818BF012018707C
S315080006B000F014B90800002000B5042183B0022018
S315080006C002F042FE002802DB03B05DF804FB00904E
S315080006D0044B0549C222032000F016FB03B05DF85F
S315080006E004FB00BF603B0008843B000870B582B07D
S315080006F000F048F9274B1A78824226D00128264D61
S315080007001870044614D000F045F92B788342064643
S3150800071033D0012828D0002000F0FCF802242E70DF
S315080007202146012002F010FE002828DB02B070BD29
S3150800073000F030F92B7883420646F1D0012826D0FE
S31508000740002000F0E7F82E70EAE7134D00F022F9D2
S315080007502B7883420446E9D001280CD0002000F00B
S31508000760D9F82C7002B070BD0624012000F0D2F82A
S3150800077001232B70D4E70424F7E70224D0E700907E
S31508000780064B0749E422032000F0BEFACEE705240B
S31508000790EBE700BF090000200A000020903B000894
S315080007A0843B000800B5082183B0012002F0CCFD87
S315080007B0002802DB03B05DF804FB0090044B0549F2
S315080007C0ED22032000F0A0FA03B05DF804FB00BF99
S315080007D0AC3B0008843B00081049114BD1F830287F
S315080007E042F00102C1F830281A6822F4403242F475
S315080007F080321A601A6822F4404242F480421A6033
S315080008001A6822F4405242F480521A601A6822F496
S31508000810406242F480621A60704700BF00300240AE
S31508000820000002400C490D4BD1F8302842F0010275
S31508000830C1F830281A6822F440221A601A6822F48D
S3150800084040121A60DA6822F44022DA60DA6822F482
S315080008504012DA60704700BF0030024000000240D4
S315080008601C491D4BD1F8302842F00202C1F8302845
S31508000870D3F8002422F0C002C3F80024D3F80024D9
S3150800088022F44072C3F80024D3F8002422F440620C
S31508000890C3F80024D3F8002422F44052C3F80024F5
S315080008A0D3F80C2422F0C002C3F80C24D3F80C2485
S315080008B022F44072C3F80C24D3F80C2422F44062C4
S315080008C0C3F80C24D3F80C2422F44052C3F80C24A1
S315080008D0704700BF003002400000024010B40B4CC5
S315080008E0012823880A4818BF23F4807341690CBF7E
S315080008F043F480739BB2238003F4F07221F4F073FF
S3150800090013435DF8044B4361704700BF0C00002099
S315080009100000024010B40B4C012823880A4818BF6F
S3150800092023F0800341690CBF43F080039BB2238008
S3150800093003F4F07221F4F07313435DF8044B43613A
S31508000940704700BF0C0000200000024010B40B4C9A
S31508000950012823880A4818BF23F0200341690CBFE1
S3150800096043F020039BB2238003F4F07221F4F07362
S3150800097013435DF8044B4361704700BF0C00002029
S3150800098000000240024BD3F81004C0F3C0007047C1
S3150800099000000240024B1869C0F34020704700BFB0
S315080009A0000002402DE9F04FB0FBF1FC1D4601FBAB
S315080009B01C0385B0D35CDDF838808DF8043001AFB0
S315080009C0DDE90F96BE46012400E09C46814260465A
S315080009D00AD8BCFBF1F301FB13CC013412F80CC0A6
S315080009E00EF801CF0B2CF0D1B8F1000F2AD005B1C3
S315080009F0013DB9F1000F01D02D20B047AC421BD202
S31508000A00B9F1000F14BF4FF0300B4FF0200BA24680
S31508000A1058460AF1010AB047AA45F9D3B8F1000FBA
S31508000A200AD1013C3C442078B047BC4204F1FF346B
S31508000A30F9D105B0BDE8F08FB9F1000FF1D12D203D
S31508000A40B047EEE7AC42DBD3EBE700BF2DE9F04752
S31508000A500446054614F8010B84B0002854D0DFF884
S31508000A6034A1DFF83491DFF834810F46164605E0E5
S31508000A70B047254601342878002845D02528F7D1DF
S31508000A80687830284AD002350021A0F13003092BB6
S31508000A904FF000030BD803EB830300EB430315F871
S31508000AA0010BA0F13002092AA3F13003F3D96C280F
S31508000AB008BF15F8010B782822D8572827D9A0F19E
S31508000AC05804202C1CD8DFE804F0481B1B1B1B1BF2
S31508000AD01B1B1B1B1B42391B1B1B1B1B1B1B1B1B13
S31508000AE01B1B2D1B1B541B111B1B2D0057F8040B1E
S31508000AF0CDE90116002200920A214246FFF752FF6D
S31508000B006C1C28780028B9D104B0BDE8F087002805
S31508000B103CD02528F4D1B0476C1CF2E7A87801210F
S31508000B200335B2E7002257F8040B0092CDE9011607
S31508000B304A461021FFF736FF6C1C9CE757F8040B52
S31508000B400028CDE90116D5DA40420122D3E757F845
S31508000B50040BC0B26C1CB0478DE7002257F8040B93
S31508000B600092CDE9011652461021FFF71BFF6C1CB7
S31508000B7081E757F8044B14F8010B0028C0D0B0479A
S31508000B80207801340028FAD16C1CBAE72C46013DBE
S31508000B9071E700BF0C3C00082C3C0008203C00080C
S31508000BA00346006801280A4607D0022804D10548EA
S31508000BB003F10801FFF74ABF7047986803F10C0173
S31508000BC0FFF744BFD43B000810B582B003460A4677
S31508000BD00C460448019301A9FFF738FF0A20A047ED
S31508000BE002B010BDF43B00080EB410B58BB00DAAC8
S31508000BF04FF0010C52F8041BCDF808C00B7804918D
S31508000C000192964643B1BCF1050F05D8252B0BD0AA
S31508000C1011F8013F002BF6D102A900F09DF90BB09F
S31508000C20BDE8104003B070474B788A1CA3F1300129
S31508000C30092905D812F8013BA3F130010929F9D988
S31508000C406C2B1AD0002B58D0583BD9B2202940D843
S31508000C50202B3ED8DFE803F0403D3D3D3D3D3D3D80
S31508000C603D3D3D2F403D3D3D3D3D3D3D3D3D3D3DB1
S31508000C702F3D3D2F3D403D3D4000114611F8013BBB
S31508000C80002BC9D0583BDCB2202C3AD8202B38D8B8
S31508000C90DFE803F02E373737373737373737371226
S31508000CA02E37373737373737373737371237371219
S31508000CB0372E37372E00114672460AAB03EB8C03E4
S31508000CC052F8044B43F8184C0B780CF1010C964675
S31508000CD098E71378114695E75EF8044B11460AAB78
S31508000CE003EB8C030CF1010C43F8184C0B7889E7DD
S31508000CF0724652F8044B9646F1E712F8013C511E2B
S31508000D0080E753787EE700BF2DE9F04188B080463A
S31508000D100E9C20460D4616461F4600F013F8241270
S31508000D20074B0390012240466946CDE905760494AF
S31508000D3007950092029300F00FF908B0BDE8F0811C
S31508000D40403C00083A30C0B23A289ABF024B53F8E2
S31508000D5020000248704700BF383D0008703C000874
S31508000D601F4A411E10B552F82140E268002322F4BA
S31508000D7000520128E2602361E36063612CD001F030
S31508000D805BFB184A1849A2FB00204FF47A73420904
S31508000D9003FB02F2A1FB02C11448090EA0FB0202E2
S31508000DA001FB03F3C3EB12331B01114A03F5FA7374
S31508000DB0A2FB0323C3F3831343EA0113A360E36887
S31508000DC043F00C03E360636943F001036361E3687E
S31508000DD043F40053E36010BD01F054FBD1E700BFB4
S31508000DE0243E00081F85EB51D55204E9398EE338B5
S31508000DF0D34D621010B4074B074C08490022012056
S31508000E00C3E90024C3E90220C3E904125DF8044BD0
S31508000E10704700BF10000020001001400044004049
S31508000E20022810B50ADC431E064C03EB430304EB09
S31508000E308304A160FFF794FF204610BD00242046D6
S31508000E4010BD00BF10000020F8B5441E0E4E04EB7E
S31508000E50440506EB850567006B681A68120603D415
S31508000E601B689B0607D4F8BDA86800F06BFA6B6888
S31508000E701B689B06F7D53C4406EB8406B068BDE8BC
S31508000E80F84000F095BA00BF1000002043681868C3
S31508000E9010F080001CBF59600120704743681A682B
S31508000EA0920646BF5868C0B24FF0FF30704700BF81
S31508000EB0012908D0022905D14268D36843F02003E6
S31508000EC0D360704770474268D36843F08003D360A5
S31508000ED0704700BF012908D0022905D14268D368A6
S31508000EE023F02003D360704770474268D36823F025
S31508000EF08003D360704700BF10B5084888B0012347
S31508000F00CDE902030222092469460520CDE90442F7
S31508000F10009300F021F808B010BD00BF2C3E000871
S31508000F2030B4074A074D084C08480949002313609E
S31508000F30084A2B602360036030BC0B60136070475F
S31508000F40300400202C04002040040020380400202F
S31508000F50340400203C0400202DE9F0410D46EFF34F
S31508000F601183102B48D0254910220B6082F3118873
S31508000F700026234B234A1B6812686A6001248440B2
S31508000F801C421DD0DFF898801F4BD8F80070AE467B
S31508000F9003EB471CBEE80F00ACE80F009EE80F0005
S31508000FA001371F2F8CE80F00184A92BFC8F8007047
S31508000FB00023C8F8003013681F2B16D801331360B6
S31508000FC0134B1B6834EA030307D11EB90B4B1B6886
S31508000FD083F311880020BDE8F08128460D49FFF704
S31508000FE0DFFD0A2000F07AFBEFE70B4BD8F800206C
S31508000FF01A600A4A1368E1E70126BAE728000020C2
S3150800100034040020F83E00202C0000202C04002088
S315080010103C040020DD1600083004002038040020B7
S315080010204004002070B58446EFF31183102B2DD0B1
S31508001030284D10222B6082F31188274A13686FF017
S315080010402800BBB1254E013B34681360244B03EBE3
S31508001050441EBEE80F00ACE80F009EE80F000134FE
S315080010601F2C8CE80F00346008D91E4B0022186824
S3150800107032601A602B6883F3118870BD194B002201
S3150800108018681A602B6883F31188F6E7124A136802
S315080010906FF02800002BF0D0104C013B216813603C
S315080010A00F4B03EB411E4D1CBEE80F00ACE80F00CA
S315080010B09EE80F001F2D8CE80F00256005D9094B07
S315080010C00022186822601A6070BD064B0022186854
S315080010D01A6070BD280000202C040020300400206F
S315080010E02C00002038040020034A044B1060C94332
S315080010F019600020704700BF340400203C0400201B
S315080011000A29F8B50E46044602D10369DB062FD430
S3150800111002F072FB00283CDB236BD3B12268E36A3A
S315080011205269D6542268E36A206B15690133013087
S31508001130AB42A5EB0005E362B5FA85F504BF0023CB
S31508001140E36220636D0902F079FB002821DB28465B
S31508001150F8BD656B002DE1D1676831463846FFF763
S3150800116095FE0028EFD101213846FFF7A1FED5E705
S315080011700D21FFF7C5FF051EE9DBC9D023685868AE
S3150800118001F0F0FF051EC3DA25F002035BB2333324
S31508001190DDD00123E3606FF00405D8E70449054B69
S315080011A0002201F1180019609A6098631A64704762
S315080011B0983F0008440800202DE9F843074602F046
S315080011C0C5FB002843D17E1E012E3DD802F04CFBFC
S315080011D000283FDBDFF8A480C6EBC60408EBC4048E
S315080011E04FEAC609A56845B16FF0280502F06AFB03
S315080011F0002839DB2846BDE8F88340F21153C4E9D4
S315080012000555C4E90955C4E90B55E56184F820502C
S315080012106563236102F0F0FA002812DB384621469E
S31508001220FFF7FEFD012760600221FFF741FEE5603A
S31508001230A76002F003FB0028D8DAE7606FF0040520
S31508001240D4E76FF00405D1E76FF01105D2E76FF028
S315080012501805CFE7094BC6EBC60603EBC603012202
S31508001260DA606FF00405C5E7A9EB060308EBC303CC
S315080012700122DA606FF00405BCE700BF44080020CD
S315080012802DE9F84F06460C46154602F05FFB002886
S315080012904CD1013E012E46D8294FC6EBC60807EBAE
S315080012A0C80B4FEAC609DBF80830002B41D0DBF83B
S315080012B00C00002840D1B5B18246012030B1DBF8D8
S315080012C00030586801F04EFF00280EDB14F8011BA9
S315080012D05846FFF715FF002812DB0AF1010A5545A3
S315080012E0ECD190B15046BDE8F88F20F002035BB20E
S315080012F0333305D007EBC8070123FB606FF0040002
S31508001300BAF1000FEED1BDE8F88FA9EB0604E400A8
S315080013103B59586801F054FE0028E3DA27440123B4
S31508001320FB605046DFE76FF01100DCE76FF018004E
S31508001330D9E76FF02800D6E76FF00400D3E700BFBF
S315080013404408002038B590F82010044649B9456B82
S315080013500DB9036B63B960680121BDE83840FFF732
S31508001360B9BD4068FFF792FD002384F8203038BDE8
S315080013700268836A52694068D15CFFF787FD216875
S31508001380A36A0A690133934218BF1D46236BA562F7
S315080013909A4202D0013B236338BD486801F078FEC3
S315080013A00028B7BF0122236B236BE260F2E700BF78
S315080013B038B504464068FFF771FD2369DD05C0B2FC
S315080013C028D513284AD0626B3ABB112821D0236846
S315080013D0E1699A6891421CD0DA68A369D0542268F8
S315080013E0A369916801338B42A36104BF0023A361FB
S315080013F0E369002B35D0226901335205E36108D52C
S31508001400626A32B92268926802EB4202B3EB920F23
S3150800141031D238BD626B002AD9D0112801D099057E
S31508001420D5D5236B00226263002BF2D0D4E90035B0
S315080014305A69A36A2846D15CFFF728FD002834D0EC
S315080014402068A36A0169226B01338B4208BF002317
S315080014509142A3621FD0013A226338BD0123636318
S3150800146038BD106801F014FE0028B7BF0122E369F1
S31508001470E369E260BFE7656813212846FFF706FDC2
S3150800148030B901212846FFF713FD132384F82030CD
S315080014900123636238BD406801F0FAFD0028B7BF32
S315080014A00123226B226BE360D5E728460121BDE8BC
S315080014B03840FFF7FDBC00BF431E012B01D90020B1
S315080014C0704730B5154CC3EBC30204EBC20C4FEAA8
S315080014D0C30EDCF80800D20010B1DCF8300000B901
S315080014E030BDA0584569DCF82800285C0870A25869
S315080014F0AEEB03031169DCF8282004EBC3040132C0
S31508001500236BCCF828208A4208BF002203F1FF3358
S3150800151008BFCCF828200120236330BD44080020EA
S3150800152000B5074983B00346012208688DF80730DD
S315080015300DF10701FFF7A4FE03B05DF804FB00BF39
S31508001540B4080020F0B51D4E1D4D30608BB0FFF776
S3150800155033FE01213F20FFF7C7FD3368194A0121F1
S315080015600291052002A9CDE90423FFF7F5FC0A2715
S31508001570002402E0029B04446BB902A8FFF752FD5F
S315080015800028F7DA1CB129462046FFF71DFB0A207A
S3150800159001F0ACFCECE764B9294602A8FFF700FBAA
S315080015A030688DF8077001220DF10701FFF768FE14
S315080015B0DEE729462046FFF707FBEDE7B4080020DB
S315080015C021150008C83F0008F0B51B4D8BB003E095
S315080015D09DF8070000F082F828680DF10701FFF76B
S315080015E06BFF04460028F3D1144E154F02A8FFF7E7
S315080015F019FD051E11DB94B1C5B9029B0124002B08
S31508001600F4D0314602A8FFF7CBFA0A2000F066F8B4
S3150800161002A8FFF707FD051EEDDA0BB0F0BD32464E
S3150800162021463846FFF712FA002DE6D031462846FD
S31508001630FFF7CAFAE1E700BFB4080020DD16000884
S31508001640F43F00080220FFF7FFBB00BF08B501F012
S3150800165013F901F09DFC01F0D9FD01F0E3FF02F05A
S3150800166089F9BDE8084002F099B900BF08B500201D
S3150800167000F02EFF0020FFF753FC0020FFF73CFC8C
S315080016800020FFF7B7FB0020FFF788FD0020FFF7D3
S31508001690A3F80020FFF7C6F80020FFF7E1F8BDE839
S315080016A008400020FEF7F0BF08B50020FFF78CFFC2
S315080016B0BDE80840002000F01BBF00BF08B500F0D9
S315080016C0A7F8024A024B12681A6008BDCC43000804
S315080016D00000002008B500F095FFFEE700B585B0CC
S315080016E00D230A288DF807008DF80F300AD04FF61B
S315080016F0FF7301220DF10701074800F05BFB05B0F7
S315080017005DF804FB4FF6FF7301220DF10F01024845
S3150800171000F050FBEBE700BF103E002000B50020AC
S3150800172083B000F097F800240194019BB3F5801F5D
S3150800173006DA019B01330193019BB3F5801FF8DBA1
S31508001740002000F0AFF8EFE7284B1A6842F4007261
S3150800175030B51A601A6842F480621A601A6842F450
S31508001760807289B01A6000F0A5F800F011FF002019
S3150800177000F070F81E4B1F481A6B42F001021A63FC
S315080017801A6B02F001020192019A1A6C42F40032B5
S315080017901A641B6C03F400330293042307240225FE
S315080017A003A90393029B07940123059304950695C1
S315080017B000F0C8F808230F48039303A9079400F01C
S315080017C0C1F80D4C0D4800234FF4E1310C22C0E955
S315080017D00041C0E90233C0E905230361C36100F093
S315080017E0B9FA08B909B030BDFFF798FF003C0240C6
S315080017F0003802400000024000440040103E00202D
S3150800180000207047014B1868704700BFF83E00205B
S315080018100D4B0E481A68002142F0010210B41A60F6
S3150800182099601A680A4C22F0847222F480321A608F
S315080018305C601A685DF8044B22F480221A604FF047
S315080018400062D960826070470038024000ED00E00F
S315080018501030002470B5044686B048B90F4B1A6B91
S3150800186042F001021A631B6B03F001030093009B0D
S315080018700B4E012356F824002025022201A9CDE9A2
S315080018800332CDE9015300F05DF856F82400002232
S31508001890294600F055F906B070BD00BF0038024071
S315080018A004000020024B202153F8200000F04CB918
S315080018B004000020214B224A196C70B541F0805172
S315080018C019641B6C94B003F080530193019B136851
S315080018D023F4404343F400431360136803F440437E
S315080018E0022002931021029B0890012600254FF43E
S315080018F0A8740E900422072308A8CDE90B61CDE948
S315080019000F51CDE91142139300F0B4FA78B90F20BC
S3150800191002210023CDE903014FF4805203A8CDE943
S315080019200532079300F04AFC20B914B070BDFFF7E2
S31508001930F5FEECE7FFF7F2FE14B070BD0038024082
S31508001940007000402DE9F04F00230D6883B04FF07A
S31508001950010803E00133102B00F0928008FA03F225
S3150800196032EA050402EA050CF4D14E6826F010099D
S31508001970B9F1020F00F08780D0F800B04FEA430EA5
S31508001980032404FA0EF406F0030A2BEA040B09F101
S31508001990FF390AFA0EFA4AEA0B0AB9F1010F6FEA99
S315080019A00404C0F800A040F29680C26814408A6811
S315080019B002FA0EF22243F700C260CBD55A4C626C8B
S315080019C042F480426264626C02F480420192019A97
S315080019D023F0030202F1804203F0030E0F2702F5FB
S315080019E09C324FEA8E0E07FA0EF9504F9468B842A9
S315080019F024EA090417D007F58067B84200F0818009
S31508001A004B4FB84200F082804A4FB84200F08580BA
S31508001A10494FB8420CBF4FF004094FF0050909FABF
S31508001A200EFE44EA0E049460444A12686FEA0C0EED
S31508001A30F403424C54BF0EEA02024CEA0202226048
S31508001A406468B2033D4A54BF0EEA04044CEA04042F
S31508001A5054609468394AF70254BF0EEA04044CEA03
S31508001A6004049460D268B40203F10103334C54BFF2
S31508001A700EEA02024CEA0202102BE2607FF46EAF15
S31508001A8003B0BDE8F08F4FEAD30900EB89090C696A
S31508001A90D9F820A003F0070E4FEA8E0E0F2704FA96
S31508001AA00EF407FA0EFE2AEA0E0E44EA0E04C9F8E8
S31508001AB02040D0F800A04FEA430E032404FA0EF49F
S31508001AC006F003092AEA040A09FA0EF949EA0A0994
S31508001AD0E443C0F80090D0F808A0CF680AEA040AE0
S31508001AE007FA0EF949EA0A09C0F80890D0F80490EE
S31508001AF029EA0209C6F300129A4042EA090242603C
S31508001B0053E708FA0EFE44EA0E048CE74FF0020982
S31508001B1009FA0EFE44EA0E0485E74FF0030909FAAE
S31508001B200EFE44EA0E047EE700380240000002403A
S31508001B3000080240000C024000100240003C014030
S31508001B4002B9090481617047436959404161704788
S31508001B5002681169F8B50446C068A368256921F4C6
S31508001B60405101431161D168E0692B43656921F44D
S31508001B7016412B4321F00C0103430B43D3605369F1
S31508001B80A16923F440730B43B0F5004F5361564BDC
S31508001B9054D09A4236D003F580639A4232D000F088
S31508001BA04BFC524E636800EB800000EB80009B0004
S31508001BB0B0FBF3F3A6FB03235B091D0100F03CFC15
S31508001BC0676800EB800000EB8000BF00B0FBF7F70A
S31508001BD000F032FCD4E9002300EB80009B0000EB08
S31508001BE08000B0FBF3F0A6FB00304009642303FB3A
S31508001BF010731B013233A6FB0313C3F343132B43A2
S31508001C009360F8BD00F03EFC384E636800EB800038
S31508001C1000EB80009B00B0FBF3F3A6FB03235B09F4
S31508001C201D0100F02FFC676800EB800000EB8000C8
S31508001C30BF00B0FBF7F700F025FCCBE79A4236D099
S31508001C4003F580639A4232D000F0F6FB274E6368AC
S31508001C5000EB800000EB80005B00B0FBF3F3A6FB13
S31508001C6003235B091D0100F0E7FB676800EB8000B2
S31508001C7000EB80007F00B0FBF7F700F0DDFBD4E94E
S31508001C80001200EB800000EB80005200B0FBF2F27D
S31508001C90A6FB02325209642303FB12731B0132337B
S31508001CA0A6FB0323C3F343132B438B60F8BD00F055
S31508001CB0E9FB0E4E636800EB800000EB80005B00DA
S31508001CC0B0FBF3F3A6FB03235B091D0100F0DAFB67
S31508001CD0676800EB800000EB80007F00B0FBF7F739
S31508001CE000F0D0FBCBE700BF001001401F85EB5189
S31508001CF0F8B506460D461446FFF784FD07463268D2
S31508001D0001E0631C05D1136835EA0303F9D1002005
S31508001D10F8BD2CB1FFF776FDC01B8442EFD23268BE
S31508001D20D36823F08003D360D36823F02003D360FD
S31508001D30D36823F48073D36053690124002123F008
S31508001D400103536186F8394086F838100320F8BD38
S31508001D50704700BF58B310B590F83930044603F001
S31508001D60FF02FBB12268022384F83930D36823F4D2
S31508001D7000532046D360FFF7EBFE23681A6922F466
S31508001D8090421A615A6922F02A025A61DA680021D9
S31508001D904FF0010C42F40052DA60E16384F839C06E
S31508001DA0084610BD80F83820FFF7D2FFDAE7012091
S31508001DB0704700BF70B5044690F8390001280D46F3
S31508001DC01E4602D0C3B2222B4CD1002D4CD0002A7D
S31508001DD04AD094F83830012B44D0012384F838309F
S31508001DE00023E36394F83930A284222B0CBF3223F4
S31508001DF0122384F8393009E0FFF77AFF002837D133
S31508001E00236815F8012B5A60E28CCAB1A36802F15F
S31508001E10FF3CB3F5805F32464FF080012046A4F8B8
S31508001E2026C0E9D1FFF764FF10BB2B882168226919
S31508001E30C3F308034B60CAB9E28C0235002AE5D120
S31508001E40324640212046FFF753FF88B994F83930C7
S31508001E50322B0CBF2223012384F83930002384F85F
S31508001E60383070BD022070BD012070BD0135CBE74A
S31508001E70032070BDF0B50368DE0783B0044638D585
S31508001E80A0498A6802F00C02042A00F0EE808A68EB
S31508001E9002F00C02082A03D14A68550200F1E580CF
S31508001EA0984D0023AB70FFF7ADFC41F28837064624
S31508001EB005E0FFF7A7FC831BBB4200F2C5802B6831
S31508001EC09903F6D42379AB706368002B00F00A8176
S31508001ED0FFF798FC8B4E054641F2883705E0FFF779
S31508001EE091FC401BB84200F2AF8033689A03F6D5DE
S31508001EF023689F072DD5834A916811F00C0F00F0CF
S31508001F00AA80916801F00C01082900F0A080E36816
S31508001F10002B00F0D6807C4B7A4E01221A60FFF720
S31508001F2071FC054605E0FFF76DFC401B642800F2CE
S31508001F308B8033689807F6D53168F82292FAA2F2B0
S31508001F402369B2FA82F2934021F0F8021343336010
S31508001F5023681A071FD4580734D4A369C3B1694D37
S31508001F60AA6802F00C02082A7CD0022B664B4FF0B6
S31508001F7000021A6600F0CC80FFF744FC044604E031
S31508001F80FFF740FC001B64285ED82B689B01F7D43A
S31508001F90002003B0F0BD6369002B70D05A4B594E30
S31508001FA00122C3F8802EFFF72DFC054604E0FFF753
S31508001FB029FC401B642847D8736F9B07F7D523680D
S31508001FC05807CAD54F4B514D1A6C42F080521A64C5
S31508001FD01B6C03F080530193019B2B6843F48073B9
S31508001FE02B60FFF70FFC064604E0FFF70BFC801B8F
S31508001FF0642829D82B68D905F7D5424D002385F8DA
S315080020007030FFF7FFFB41F28837064604E0FFF71A
S31508002010F9FB801BB84217D82B6F9A07F7D4237A97
S3150800202085F87030A368002B00F0B480FFF7EAFB50
S31508002030344E054641F28837336F9B078DD4FFF738
S31508002040E1FB401BB842F7D9032003B0F0BD526844
S3150800205056023FF55CAF2B4A1268950720D5E26811
S31508002060012A1DD0012003B0F0BD264A126890034C
S315080020707FF53FAF6268002A7FF43BAFF2E7224A5A
S31508002080204EC2F8803EFFF7BDFB054604E0FFF789
S31508002090B9FB401B6428D7D8736F9F07F7D48EE720
S315080020A0184DF822286892FAA2F2B2FA82F1226949
S315080020B020F0F8008A4002432A601A077FF54BAFE2
S315080020C069E7114A0F4E1360FFF79CFB054604E0CB
S315080020D0FFF798FB401B6428B6D833689907F7D4EE
S315080020E0236836E7FFF78EFB064E054641F288372A
S315080020F004E0FFF787FB401BB842A5D833689B036B
S31508002100F7D4F5E600380240000047420070004068
S31508002110FFF778FB064604E0FFF774FB801B64288C
S3150800212092D82B689901F7D447F6C07090FAA0F0B8
S315080021304FF44032B0FA80F092FAA2F24FF0706192
S31508002140B2FA82F291FAA1F1A36A5B08013B03FA9B
S3150800215002F2D4E907363343666A06FA00F0034307
S31508002160E06AB1FA81F100FA01F11343114A0B430F
S3150800217001216B601166FFF745FB0F4D044605E02C
S31508002180FFF740FB001B64283FF65EAF2B689A01F9
S31508002190F6D5FDE6FFF736FB074E054641F28837CA
S315080021A0336F98077FF5D9AEFFF72CFB401BB84273
S315080021B0F6D949E700004742003802407F4A1368CB
S315080021C003F00F038B422DE9F0410C4605465AD21F
S315080021D0CBB21370136803F00F038B4202D00120B1
S315080021E0BDE8F08103689F0706D5754980688A6847
S315080021F022F0F00202438A60DE072BD56A68012ABC
S3150800220000F0A380931E012B6D4B1B6840F299804A
S315080022109907E4D56A4CA36823F003031343A36024
S31508002220FFF7F0FA6B68012B064600F0A280022B36
S3150800223000F0AD80032B00F0B88041F2883704E047
S31508002240FFF7E0FA831BBB4267D8A36813F00C0FAD
S31508002250F6D12B685A0706D55949E8688A6822F4E0
S31508002260E05202438A601B0707D5554A29699368D5
S3150800227023F4604343EAC10393600F20FFF7C0FAD3
S315080022800020BDE8F08103689A0706D54C498068A6
S315080022908A6822F0F00202438A60DF0725D56A6859
S315080022A0012A2DD0931E012B454B1B6838D9990757
S315080022B095D5434EB36823F003031343B360FFF782
S315080022C0A1FA6B68012B07462DD0022B43D0032BAE
S315080022D01BD041F2883804E0FFF794FAC31B434544
S315080022E01BD8B36813F00C0FF6D1344BE2B21A7050
S315080022F01B6803F00F03A3427FF471AF2B68A9E7AD
S315080023002F4B1B689E03D4D469E741F28834B3681F
S31508002310FFF778FAC01BA042F9D90320BDE8F0817F
S315080023209801C6D45BE741F2883804E0FFF76AFAF9
S31508002330C01B4045F1D8B36803F00C03042BF5D154
S31508002340D3E798013FF566AF49E71D4B1B689C0329
S315080023503FF560AF43E741F2883804E0FFF752FAE9
S31508002360C01B4045D9D8B36803F00C03082BF5D138
S31508002370BBE741F2883704E0FFF744FA831BBB4208
S31508002380CBD8A36803F00C03042BF5D161E741F21F
S31508002390883704E0FFF736FA801BB842BDD8A36831
S315080023A003F00C03082BF5D153E741F28835A368EF
S315080023B0FFF728FA801BA842F9D9AEE7003C02408D
S315080023C000380240194A936803F00C03042B2AD0FC
S315080023D0082B26D151685368506801F03F0147F62B
S315080023E0C0725B0292FAA2F3B3FA83F300EA020020
S315080023F020FA03F04CBF0E4B0E4BB3FBF1F10B4B1F
S3150800240001FB00F04FF440325B6892FAA2F2B2FA8E
S3150800241082F203F44033D34001335B00B0FBF3F0A0
S315080024207047044870470248704700BF00380240AA
S3150800243000127A000024F40010B50F4CFFF7C2FF13
S31508002440A368F02292FAA2F2B2FA82F203F0F0033B
S315080024500A49D3400A4ACB5CD8401060A3684FF4B7
S31508002460E05292FAA2F2B2FA82F203F4E053D340AF
S31508002470CB5CD84010BD00BF003802408844000835
S315080024800000002010B50F4CFFF79CFFA368F02250
S3150800249092FAA2F2B2FA82F203F0F0030A49D340A2
S315080024A00A4ACB5CD8401060A3684FF4604292FA9F
S315080024B0A2F2B2FA82F203F46043D340CB5CD8406E
S315080024C010BD00BF00380240884400080000002004
S315080024D04FF0E02305491A6922F001021A61596191
S315080024E099611A6942F005021A6170471F4801008E
S315080024F04FF0E02300221A61704700BF4FF0E02337
S315080025001B6900F009BC00BF031F0B2B11D80E4B2B
S31508002510820853F822301A6800F00300C0004FF012
S31508002520FF0C0CFA00FC22EA0C02814011431960E8
S315080025307047A0F11003542BFAD823F0030303F1D4
S31508002540604303F56443E6E7A4450008052804D07C
S31508002550062814D0042809D070474FF0E022D2F894
S31508002560243D43F40033C2F8243D70474FF0E0227F
S31508002570D2F8243D43F48033C2F8243D70474FF027
S31508002580E022D2F8243D43F48023C2F8243D704764
S315080025904FF0E023184A1949194810B4C3F8082D12
S315080025A0D3F8182D22F0FF02C3F8182DD3F8182DEA
S315080025B022F47F42C3F8182DD3F8182D22F47F028F
S315080025C0C3F8182DD3F81C2D22F07F42C3F81C2D12
S315080025D0D3F8202D22F0FF02C3F8202DD3F8202DA2
S315080025E022F47F02C3F8202D012400230C605DF835
S315080025F0044B0360704700BF00000008503E0020EF
S31508002600543E002082B0044B0193019B13B1019BF9
S3150800261002B0184702B07047000000002DE9F041EB
S31508002620A0F10F0CBCF1550F88B039D802F10F0391
S315080026300E2B28D8324F4FEA50180D4600F01F06C9
S3150800264057F82810012303FA06F60E4204460DD061
S315080026500F2832D0A0F110014FEA511C294801F089
S315080026601F018B4040F82C30BFF36F8F5342DBB20B
S31508002670C3F1100319012046FFF746FFEB0723D4E1
S3150800268008B0BDE8F0812048204B02900224F522CC
S3150800269069460020CDE903230094FEF75DFCFEE7BA
S315080026A019481B4B02900224F42269460020CDE902
S315080026B003230094FEF750FCFEE74FF0E0210B6978
S315080026C023F002030B61CFE757F828301E42D7D014
S315080026D00F2C0ED0A4F110035A09920002F16042A1
S315080026E002F5614203F01F03012101FA03F31360A7
S315080026F0C6E74FF0E022136943F002031361BFE710
S315080027001040000880E100E098440008E44400080E
S31508002710C8440008F0B587B0036A0668456A059399
S315080027200446EFF3058708490020FEF75DFA059B86
S3150800273006490294C7F308020020CDE90056FEF7C1
S3150800274053FAFEF7C7FF00BF1445000834450008D2
S31508002750F0B587B0036A0668456A05930446EFF341
S31508002760058708490020FEF73FFA059B06490294AB
S31508002770C7F308020020CDE90056FEF735FAFEF742
S31508002780A9FF00BF844500083445000808B5FEF7D0
S31508002790DBFF00F0E7F9FEF759FFFEF767FF024B8C
S315080027A001221A60FDF73BFE583E002008B5FEF7E9
S315080027B07BFFFEF78FFF00BF134B1888A8B1C3B283
S315080027C083B1002110F00F03104A08BFC0F30313AA
S315080027D01A4408BF043112F8013C0D480B4450F85E
S315080027E033007047000A0821ECE710B588B009499C
S315080027F0094B02910224AC226946CDE903230094D1
S31508002800FEF7AAFBFEE700BF703E0020144600084C
S31508002810743E0020B4450008CC45000810B4124B9D
S31508002820427B124903EBC20C0123DCF804404460E6
S31508002830C0F800C02060CCF80400B1F800C00C4C09
S31508002840934043EA0C030B80236833B15B7B9342C6
S3150800285003D800205DF8044B7047064B20601868C3
S315080028605DF8044B704700BF743E0020703E0020A0
S315080028706C3E0020603E00202DE9F04F2C4A2D4981
S315080028802D4C2E482E4D00230B6013602D492360D6
S3150800289003602D4B01222A600A6083B003F180028F
S315080028A0C3E9003308339A42FAD1284A284BD2F8AA
S315080028B000A000241C80BAF1000F35D0254BDFF8A4
S315080028C09CB0254EDFF89890009325464FF00108F6
S315080028D001E0544528D0009A52F8043B0092013B87
S315080028E00BEB43105A0106EB4313817BD3F80CC05C
S315080028F0B258057321F007015FFA8CF792078360D7
S3150800290004F101048DF807C0817347730561E0D5AA
S31508002910D3E904321344C0F81C90836180F80C8014
S31508002920FFF77CFF5445D6D103B0BDE8F08F00BF52
S31508002930683E00205C3E00206C3E0020F43E0020ED
S31508002940643E0020603E0020743E0020704400086B
S31508002950703E00207C44000804440008783D0020AE
S31508002960AD04000830B5D0E90014427B1D4B216048
S315080029704C6053F8321003EBC204A14289B006D06A
S31508002980194B1A68824212D0002009B030BD63681C
S31508002990994211D01548164B02900224972269468F
S315080029A00020CDE903230094FEF7D6FAFEE7114A84
S315080029B01960106809B030BD0F4C0B4D23880121F2
S315080029C001FA02F223EA02032A6823808242DBD153
S315080029D023B91846074B28601868D6E7FFF7ECFEB8
S315080029E0F8E700BF743E00206C3E0020DC45000876
S315080029F0F8450008603E0020703E0020837B816811
S31508002A0000220273C968417323F0060383730261C7
S31508002A10704700BFF0B48368417B114D114A2E8878
S31508002A20114FD3E904341C448461104CC46101235A
S31508002A3002EBC10403738B4033436668C0E9004662
S31508002A4030602B803B6860602BB15B7B8B4202D881
S31508002A500020F0BC7047064B38601868F0BC704719
S31508002A60703E0020743E00206C3E0020AD04000835
S31508002A70603E00202DE9F04FDFF8D890DFF8D8A0A7
S31508002A80D9F80020DAF80060917B10692E4C2F4F98
S31508002A90DFF8C880DFF8C8B083B0B6FA86F36FF3FC
S31508002AA082015B099173019300251EE0D8F8003076
S31508002AB04BB92268002A34D182F31188BFF36F8F8D
S31508002AC00123C8F80030D9F80020214B0199196074
S31508002AD0937BCAF800606FF382039373DBF80030C8
S31508002AE09A4200D016B3106938B3156125603B6861
S31508002AF083F31188D9F800309B68DA6959689047DA
S31508002B002368002BD2D1EFF311835A1E0F2A04D95A
S31508002B10102282F31188BFF36F8F3B600123236075
S31508002B20C4E73B60102383F31188C7E7FDF77AFBF8
S31508002B30D9F8002010690028D7D1937B43F0040305
S31508002B40937303B0BDE8F08F503E0020543E00203A
S31508002B50603E0020683E00205C3E0020643E002067
S31508002B606C3E002006480749074A10B40023074C64
S31508002B7003600120236008605DF8044B136070470A
S31508002B80F83E0020043F0020FC3E0020003F0020C5
S31508002B90012870B402461BD90F4B104D1E68A1EBD5
S31508002BA0060C05E003C8012A83E803000C600FD071
S31508002BB014465208531E05EBC30055F83310891BFB
S31508002BC0631E614505EBC303ECD8204670BC70470D
S31508002BD01446204670BC7047003F0020D83D0020B0
S31508002BE01E4B2DE9F0411E68B6EB400F31D31C4B46
S31508002BF01C4D1F684FEA400C0446A1EB070816E077
S31508002C0055F833106246C91B04F1FF3E884505EBAB
S31508002C10C30305EBCE0E4FEA420C1BD993E803001B
S31508002C20B6EB420F8EE803000C60144612D30CF183
S31508002C300102B2420CF1FF33E2D855F8330055F8D9
S31508002C403C10C01BC91B814226BF0146624663462B
S31508002C50DAE704462046BDE8F08100BFFC3E0020C6
S31508002C60003F0020D83D0020094A38B513680133D3
S31508002C700446184613600D46FFF78AFF054B421EA9
S31508002C8043F8325003EBC2035C60206038BD00BFD6
S31508002C90FC3E0020D83D002070B51C4D1C4C2B680E
S31508002CA00268013B54F833602B60F3B1012A0CD952
S31508002CB04FEA520C174B0CF1FF31186854F83130B3
S31508002CC0A6EB000E1B1A9E4510D310463146FFF799
S31508002CD087FF02462B6804EBC30393E80300551EDF
S31508002CE004EBC50484E803000A6070BD04EBC10167
S31508002CF003C9531E04EBC30383E803000A60604656
S31508002D003146FFF745FF0246E4E700BFFC3E0020D8
S31508002D10D83D0020003F00202DE9F04788B0EFF3AA
S31508002D20148010F002000DD03848394B0290022466
S31508002D304FF4B27269460020CDE903230094FEF7EA
S31508002D400BF9FEE7334E336863B13049324B0291D3
S31508002D50022440F265126946CDE903230094FEF782
S31508002D60FBF8FEE7EFF311835A1E0F2A47D82B4FBD
S31508002D7001223B6032602A4BDFF8B090D3F800C0DE
S31508002D80284D294CC5F800C062441A60D9F80030AD
S31508002D905BB3DFF89C801CE0D8F804A058F8331021
S31508002DA0C9F800306BB1FFF71BFFD9F8001008EB24
S31508002DB0C1010346421E03C908EBC20282E80300AA
S31508002DC00B60DAE901309847D9F80030D5F800C029
S31508002DD05BB12168D8F80020ACEB010E521A724597
S31508002DE04FF0010003F1FF33D6D9C4F800C0002321
S31508002DF033603B6883F3118808B0BDE8F08710227A
S31508002E0082F31188BFF36F8FB1E700BF244600082D
S31508002E1044460008503E002054460008543E002010
S31508002E20043F0020F83E0020003F0020FC3E002022
S31508002E30D83D0020EFF31483990724D5254B1A684B
S31508002E4010B51AB3244A116809B100211160234A42
S31508002E50116841B91B68002B32D183F31188BFF37F
S31508002E606F8F012313601E4C1E4B206801221A60C7
S31508002E70FFF778FD2068FFF7C1FD2068837BDA0736
S31508002E8017D4FDF7DBFA6FF018007047EFF31182DD
S31508002E90511E0F2904D9102181F31188BFF36F8FB2
S31508002EA011480121026019600B4A11680029CED029
S31508002EB0CBE76FF300038373FFF7ACFDFDF7BEFAAC
S31508002EC009481023016083F31188BFF36F8F01232C
S31508002ED01360C8E7503E00205C3E0020643E002098
S31508002EE0683E0020603E0020543E0020EFF3148325
S31508002EF09B0737D5F0B5204D2B6885B0002B34D10C
S31508002F001E4B1B68002B30D00028044630DBEFF33D
S31508002F1011835A1E0F2A04D9102282F31188BFF38F
S31508002F206F8F174E012233602A60164F38680223C6
S31508002F300373FFF717FD3B680393C3F814D0124BCE
S31508002F401968124B029301A821440090FFF78CFEE2
S31508002F50FDF768F9009800232B60336883F311881E
S31508002F6005B0F0BD6FF0180070476FF01800F7E76E
S31508002F706FF01000F4E700BF503E0020603E0020CE
S31508002F80543E0020683E0020043F0020213A0008F5
S31508002F90084B186868B1084B084A03EB00105168DB
S31508002FA0D960C3E901321B601033834202F10C0277
S31508002FB0F5D170476C44000838190020D44300083E
S31508002FC0EFF314839B072ED570B52B4C236888B076
S31508002FD0002B3FD100284CDD284B1B68834248DB79
S31508002FE00138EFF311835A1E0F2A04D9102282F3EF
S31508002FF01188BFF36F8F224D01222B602260214A70
S31508003000010102EB00138858834213D006688E50DC
S31508003010736000F0D7FC48B9002323602B6883F35C
S31508003020118808B070BD6FF018007047FDF7FAF800
S315080030300020F1E75A6893420FD01348134B0290C9
S315080030400224972269460020CDE903230094FDF760
S3150800305083FFFEE76FF01800E3E7D3E902128968F9
S315080030608A4202D36FF02A00D6E70132DA600020DE
S31508003070D2E76FF01100D4E7503E00206C440008F8
S31508003080543E002038190020DC450008F8450008A1
S31508003090EFF314839B072ED4F0B52B4C236889B025
S315080030A0002B3FD100284CDD284B1B68834248DBA8
S315080030B00138EFF311835A1E0F2A04D9102282F31E
S315080030C01188BFF36F8F224D01262B602660214A97
S315080030D0010102EB00138858834213D007688F500A
S315080030E07B6000F06FFC48B9002323602B6883F3EC
S315080030F0118809B0F0BD6FF018007047164B002014
S315080031001E60F1E75A6893420FD01448144B029098
S315080031100224972269460020CDE903230094FDF78F
S315080031201BFFFEE76FF01800E3E7D3E90212896890
S315080031308A4202D36FF02A00D6E70132DA6000200D
S31508003140D2E76FF01100D4E7503E00206C44000827
S31508003150543E002038190020F43E0020DC450008C3
S31508003160F8450008EFF314839B072DD530B5214C9D
S31508003170226883B0002A36D11F4B1B68002B32D039
S31508003180002833DD1D4B1B6883422FDB431EEFF3FC
S315080031901181481E0F2804D9102080F31188BFF327
S315080031A06F8F174D296001212160164800EB031027
S315080031B0C3686BB1013BC360002323602B6883F3AC
S315080031C01188104603B030BD6FF0180210467047DC
S315080031D00D4B1B6822221A73694600F065FCFDF741
S315080031E021F8009AE8E76FF01802EAE76FF0110293
S315080031F0E7E700BF503E0020603E00206C44000810
S31508003200543E002038190020683E0020084B1868F4
S3150800321068B1084B084A03EB00105168D960C3E946
S3150800322001321B601033834202F10802F5D1704760
S315080032306844000818090020104200082DE9F84FD4
S31508003240EFF314839B0748D53B4F3E68002E44D1C5
S3150800325000286EDD394B1B6883426ADB384B013820
S31508003260040103EB0015EFF31182501E0F2804D951
S31508003270102080F31188BFF36F8FDFF8C890C9F864
S31508003280002001223A6003EB040ADAF80C20114305
S31508003290CAF80C101859854242D04269D2E902434D
S315080032A04FF0000B13F0010FD84610D00C4214BF94
S315080032B0012300230468ABB9A5422CD02046DAF8CE
S315080032C00C104269D2E9024313F0010FEED134EA39
S315080032D001030CBF01230023ECE76FF01806304604
S315080032E0BDE8F88F1161DAF808301B685A0744BF41
S315080032F0CAF80C800368426858BF234613605A60B0
S3150800330000F060FBDAF808301B68002818BF4FF099
S31508003310010B5B07D0D5BBF1000F01D0FCF782FF8C
S3150800332000233B60D9F8003083F311883046BDE8A6
S31508003330F88F6FF01106D2E7503E00206844000867
S3150800334018090020543E00202DE9F84FEFF31483A6
S315080033509B0761D4DFF8D880D8F80060002E5BD1CF
S3150800336000285EDD304B1B6883425ADB2F4A013842
S31508003370040102EB0015EFF31183581E0F2804D938
S31508003380102080F31188BFF36F8FDFF8A8A0CAF862
S3150800339000300123C8F8003002EB040BDBF80C30D0
S315080033A01943CBF80C10105985422BD0DFF88890BA
S315080033B006E00B420CD1A54224D0DBF80C102046BF
S315080033C042690468D2E90237FF07F2D48B43F2D187
S315080033D01161DBF808301B685A0742BF0023CBF897
S315080033E00C300368426858BF234613605A6000F0E1
S315080033F0E9FA10B10123C9F80030DBF808301B6878
S315080034005B07D8D50023C8F80030DAF8003083F314
S3150800341011883046BDE8F88F6FF018063046BDE8CB
S31508003420F88F6FF01106F9E76844000818090020BC
S31508003430503E0020543E0020F43E00202DE9F04383
S3150800344089B0EFF3148C1CF0020F3FD0414D2C6865
S31508003450002C3BD1404E3668002E37D0002875DD4B
S315080034603E4E3668864271DB00296CD0561E012E08
S3150800347069D899463A4B00F1FF3C4FEA0C1E03EB1C
S315080034800C1CEFF31180461E0F2E04D9102686F366
S315080034901188BFF36F8F334E30600120286003EB2D
S315080034A00E08D8F80800006810F0020014D153F886
S315080034B00E70BC452AD06FF01B0400232B603368BE
S315080034C083F31188204609B0BDE8F0836FF018042D
S315080034D0204609B0BDE8F08303EB0E00012AC06858
S315080034E024D1014225D1CDE902121F4A12682A21A8
S315080034F011736046694600F0D7FAFCF793FE009C04
S31508003500002CDAD1049AC9F80020D6E7D8F8047056
S31508003510BC45E1D01549164B02910224972269460B
S31508003520CDE903230094FDF717FDFEE731EA00070E
S31508003530D9D17344C9F800009A6812685207BCD5F5
S315080035400022DA60B9E76FF01004C1E76FF01104E2
S31508003550BEE700BF503E0020603E002068440008D9
S3150800356018090020543E0020683E0020DC4500086B
S31508003570F845000802688168274B2DE9F041D468B0
S31508003580264E03610C440546406121460C30FFF780
S315080035906BFB3368AC600BBBEFF31184E4B2204FCE
S315080035A00CB3C4F30714A4F110082401E4B20023F1
S315080035B033603B6883F311882B68D3E9010290478F
S315080035C03368D3B13368B8F1000F08BF002463B974
S315080035D084F31188BFF36F8FBDE8F081104F3C6804
S315080035E0E4B2002CDDD1A046E1E73C60102383F36A
S315080035F01188BFF36F8FBDE8F081EFF311835A1E70
S315080036000F2A04D9102282F31188BFF36F8F3B600B
S3150800361001233360D6E700BF75350008503E002009
S31508003620543E0020194B2DE9F0471F685FB3184D2B
S31508003630184CDFF8648000264FF0010908E00136CF
S31508003640BE4244F8083C05F1140504F118041AD0E2
S315080036502B6844F80C5C13F00203F0D0D5F810A0E0
S3150800366044F8089CA4F10C03204651460136C4E9E7
S315080036700183FFF7F9FABE4244F804AC05F11405D4
S3150800368004F11804E4D1BDE8F08700BF64440008DB
S315080036902C400008C4080020753500082DE9F047BD
S315080036A082B0EFF314839B0747D5DFF8C090D9F8AB
S315080036B00080B8F1000F40D100284BDD274B1B686E
S315080036C0834247DB441E264D04EB4407F800660098
S315080036D005EBC707EFF311835A1E0F2A04D91022E8
S315080036E082F31188BFF36F8FDFF884A00121CAF82F
S315080036F00030C9F80010321905EBC202536813BB33
S315080037000C30516028443444E4002B591E69154B8B
S315080037107F611968144B3B610E4425443146FFF717
S31508003720A3FAAE600023C9F80030DAF8003083F354
S315080037301188404602B0BDE8F0876FF01808404689
S3150800374002B0BDE8F0870C3028440190FFF7A4FAD0
S315080037500198D8E76FF01108F1E700BF6444000844
S31508003760B8080020043F002075350008503E0020A8
S31508003770543E002070B5EFF314839B0726D51A4DE7
S315080037802C681CBB00282CDD184B1B68834228DBE1
S315080037900138EFF311835A1E0F2A04D9102282F337
S315080037A01188BFF36F8F124E336001232B60114AC5
S315080037B000EB400002EBC003C000596851B9002372
S315080037C02B60336883F31188204670BD6FF01804A8
S315080037D0204670BD0C30104400225A60FFF75CFA90
S315080037E0EDE76FF01104F3E7503E0020644400084B
S315080037F0543E0020B8080020EFF314839B0704D535
S315080038000C4B186820B1002070476FF018007047FD
S3150800381010B4EFF31182511E0F2904D9102181F338
S315080038201188BFF36F8F044C0121226019605DF87F
S31508003830044B7047503E0020543E0020EFF314839B
S315080038409B0709D5064B186840B1064A0020186040
S31508003850136883F3118870476FF01800704700BF2C
S31508003860503E0020543E0020EFF314839B071DD5DD
S31508003870104B1868D0B910B4EFF31184621E0F2AE2
S3150800388004D9102282F31188BFF36F8F0A4A0121E7
S3150800389014601960094C2160094C002121601960E7
S315080038A0136883F311885DF8044B70476FF01800AE
S315080038B0704700BF503E0020543E00205C3E00206A
S315080038C0603E0020EFF314839B072BD570B5184C88
S315080038D0206882B048BBEFF311835A1E0F2A04D919
S315080038E0102282F31188BFF36F8F124D01222B60CD
S315080038F02260114B11491B6800260E605BB1104B04
S315080039001A60104A104B12681B689A4203D001903D
S31508003910FCF788FC0198002323602B6883F3118841
S3150800392002B070BD6FF0180070476FF01800F7E727
S31508003930503E0020543E0020643E00205C3E00209D
S31508003940603E0020683E00206C3E0020EFF31483A2
S315080039509B0702D5054B1B680BB101207047044B2A
S315080039601868B0FA80F04009704700BF503E002042
S31508003970603E0020074B70B51E6856B1064C002500
S31508003980D4E90112013554F80C0BFEF747FEB5428F
S31508003990F6D170BD78440008B4430008074B70B5EB
S315080039A01D6855B1064E05EB4505002456F824005A
S315080039B00334FEF7CBFDAC42F8D170BD7444000861
S315080039C01042000830B543690446186889B010B13A
S315080039D0FFF762F9636900201860237B13F002027F
S315080039E00DD05B0703D50423237309B030BD01232B
S315080039F02046237309B0BDE83040FEF70FBF0649DD
S31508003A00064B029102256D2410466946CDE903430B
S31508003A100095FDF7A1FAFEE7644600087C46000813
S31508003A2030B5426900211160027B12F0020189B0AB
S31508003A3022D0520717D504220273164B164A0021C4
S31508003A401960116881F31188EFF31181481E0F2858
S31508003A5004D9102080F31188BFF36F8F01201160FD
S31508003A60186009B030BD01240473FEF7D7FE00289C
S31508003A70E3D00A4B1C60E0E7094B0A4C0294022586
S31508003A806D2208466946CDE903230095FDF764FAD9
S31508003A90FEE700BF503E0020543E0020F43E0020C2
S31508003AA07C4600086446000870B5134E0446306824
S31508003AB00D46FEF757FFA36832681B68556100215B
S31508003AC0DB07296006D46368C2E900431A606260AE
S31508003AD06C6070BD2368507B9C4203D105E01B686F
S31508003AE09C4202D0597B8142F9D95968C2E9003112
S31108003AF00A605A606C6070BD683E0020D9
S31508003AFC54696D657220737461727421000000003C
S31508003B0C54696D65722073746F70210045787465FD
S31508003B1C6E64202564207365632E2052656D616979
S31508003B2C6E696E67202025642073656300000000AB
S31508003B3C54696D65722074696D656F757400000043
S31508003B4C52656D61696E696E672020256420736500
S31508003B5C63000000697365745F666C6728464C479A
S31508003B6C5F424C494E4B2C20424C494E4B5F424CC3
S31508003B7C494E4B29000000006375705F74696D65CA
S31508003B8C722E6300697365745F666C6728464C47CA
S31508003B9C5F54494D45522C20666C6770746E29002B
S31508003BAC697365745F666C6728464C475F54494D64
S31508003BBC45522C2054494D45525F424153455F545A
S31508003BCC494D45290000000025733A25753A2041D0
S31508003BDC7373657274696F6E20602573272066612E
S31508003BEC696C65642E0000002564206D657373612D
S31508003BFC67657320617265206C6F73742E00000004
S31508003C0C30313233343536373839414243444546F8
S31508003C1C000000003031323334353637383900007D
S31508003C2C3031323334353637383961626364656618
S31508003C3C0000000025732028256429207265706F02
S31508003C4C72746564206279206025732720696E205A
S31508003C5C6C696E65202564206F6620602573272E97
S31508003C6C00000000756E6B6E6F776E206572726F52
S31508003C7C72000000455F424F56520000455F57429E
S31508003C8C4C4B0000455F434C53000000455F444CC9
S31508003C9C54000000455F544D4F555400455F524C37
S31508003CAC57414900455F514F56520000455F4E4FEC
S31508003CBC45585300455F4F424A000000455F4E4F3A
S31508003CCC52455300455F4E4F49440000455F4E4FE1
S31508003CDC4D454D00455F494C55534500455F4F4191
S31508003CEC43560000455F4D4143560000455F43541B
S31508003CFC58000000455F494400000000455F5041EC
S31508003D0C52000000455F525341545200455F5253CE
S31508003D1C464E0000455F4E4F53505400455F53596D
S31508003D2C53000000455F4F4B00000000803C000824
S31508003D3C883C0008703C0008703C0008703C000881
S31508003D4C703C0008903C0008983C0008A03C000811
S31508003D5CA83C0008703C0008703C0008703C000841
S31508003D6C703C0008703C0008B03C0008B83C0008E1
S31508003D7CC03C0008703C0008703C0008703C000809
S31508003D8C703C0008703C0008C83C0008D03C000891
S31508003D9CD83C0008703C0008703C0008703C0008D1
S31508003DAC703C0008E03C0008E83C0008F03C0008C1
S31508003DBCF83C0008703C0008703C0008703C000891
S31508003DCC703C0008703C0008703C0008003D000878
S31508003DDC083D0008703C0008703C0008703C000860
S31508003DEC703C0008703C0008103D0008183D00089F
S31508003DFC203D0008703C0008703C0008703C000828
S31508003E0C283D0008703C0008703C0008703C00080F
S31508003E1C703C0008303D000800100140004400408A
S31508003E2C0A544F50504552532F415350204B6572EC
S31508003E3C6E656C2052656C656173652025642E254C
S31508003E4C582E256420666F72204E55434C454F28D4
S31508003E5C53544D33324634303152452920284A754D
S31508003E6C6E20323220323032362C2031363A343803
S31508003E7C3A3535290A436F70797269676874202850
S31508003E8C432920323030302D3230303320627920BD
S31508003E9C456D62656464656420616E642052656173
S31508003EAC6C2D54696D652053797374656D73204C4C
S31508003EBC61626F7261746F72790A2020202020204B
S31508003ECC20202020202020202020202020202020D8
S31508003EDC202020202020546F796F68617368692030
S31508003EEC556E69762E206F6620546563686E6F6C06
S31508003EFC6F67792C204A4150414E0A436F7079728C
S31508003F0C696768742028432920323030342D3230C2
S31508003F1C313420627920456D62656464656420617C
S31508003F2C6E64205265616C2D54696D6520537973E6
S31508003F3C74656D73204C61626F7261746F72790A65
S31508003F4C2020202020202020202020204772616459
S31508003F5C75617465205363686F6F6C206F662049B2
S31508003F6C6E666F726D6174696F6E20536369656EE8
S31508003F7C63652C204E61676F796120556E69762EC4
S31508003F8C2C204A4150414E0A000000000100000056
S31508003F9C020000000001000044040020000100009B
S31508003FAC4406002003000000040000000001000085
S31508003FBC440500200001000044070020537973745F
S31508003FCC656D206C6F6767696E67207461736B200B
S31508003FDC69732073746172746564206F6E20706FD8
S31508003FEC72742025642E00002D2D20627566666578
S31508003FFC726564206D65737361676573202D2D0A70
S3150800400C00000000008000000000400000000000D6
S3150800401C0000000000000000000000000000000086
S3150800402C0200000000000000A5060008E8030000D6
S3150800403C010000000000000000000000B90600089E
S3150800404CFA0000000000000002000000000000005A
S3150800405CED0600080A000000010000000000000040
S3150800406C00000000A5070008E80300000000000097
S3150800407C1527000815270008152700081527000816
S3150800408C1527000815270008152700081527000806
S3150800409C15270008152700081527000815270008F6
S315080040AC152700081527000815270008FD24000801
S315080040BC51270008512700085127000851270008E6
S315080040CC51270008512700085127000851270008D6
S315080040DC51270008512700085127000851270008C6
S315080040EC51270008512700085127000851270008B6
S315080040FC51270008512700085127000851270008A6
S3150800410C5127000851270008512700085127000895
S3150800411C5127000851270008512700085127000885
S3150800412C5127000851270008512700085127000875
S3150800413C5127000851270008512700085127000865
S3150800414C5127000851270008451600085127000872
S3150800415C5127000851270008512700085127000845
S3150800416C5127000851270008512700085127000835
S3150800417C5127000851270008512700085127000825
S3150800418C5127000851270008512700085127000815
S3150800419C5127000851270008512700085127000805
S315080041AC51270008512700085127000851270008F5
S315080041BC51270008512700085127000851270008E5
S315080041CC51270008512700085127000851270008D5
S315080041DC51270008512700085127000851270008C5
S315080041EC51270008512700085127000851270008B5
S315080041FC51270008512700085127000851270008A5
S3150800420C512700080400000000000000040000000C
S3150800421C0000000000000000000000000000000084
S3150800422C0000000000000000000000000000000074
S3150800423C0000000000000000000000000000000064
S3150800424C0000000000000000000000000000000054
S3150800425CA0000000000000000000000000000000A4
S3150800426C0000000000000000000000000000000034
S3150800427C0000000000000000000000000000000024
S3150800428C0000000000000000000000000000000014
S3150800429C0000000000000000000000000000000004
S315080042AC00000000000000000000000000000000F4
S315080042BC00000000000000000000000000000000E4
S315080042CC00000000000000000000000000000000D4
S315080042DC00000000000000000000000000000000C4
S315080042EC000000000000000000000000D0000000E4
S315080042FC00000000000000000000000000000000A4
S3150800430C0000000000000000000000000000000093
S3150800431C0000000000000000000000000000000083
S3150800432C0000000000000000000000000000000073
S3150800433C0000000000000000000000000000000063
S3150800434C0000000000000000000000000000000053
S3150800435C0000000000000000000000000000000043
S3150800436C0000000000000000000000000000000033
S3150800437C0000000000000000000000000000000023
S3150800438C0000000000000000000000000000000013
S3150800439C0000000000000000000000000000000003
S315080043AC00000000000000000F00000001000000E3
S315080043BCFAFFFFFF3600000001000000FDFFFFFFBB
S315080043CC3809002038190020010000000000000000
S315080043DC01000000010000000100000001000000BF
S315080043EC01000000000000000100000001000000B0
S315080043FC010000000100000002000000020000009D
S3150800440C4515000802000000000400007829002069
S3150800441C0000000000000000020000000000000080
S3150800442C190500080700000000100000782D002070
S3150800443C0000000000000000020000000000000060
S3150800444C1D0600080700000000100000781900205F
S3150800445C000000000000000004000000020000003C
S3150800446C0400000003000000000000000200000029
S3150800447C010000000200000003000000000000001C
S3150800448C0102030401020304060708092E2E2F2E27
S3150800449C2E2F6173702F617263682F61726D5F6D59
S315080044AC5F6763632F636F6D6D6F6E2F636F7265D6
S315080044BC5F636F6E6669672E6300000056414C4950
S315080044CC445F494E544E4F5F434647494E542869FC
S315080044DC6E746E6F29000000544D494E5F494E5458
S315080044EC505249203C3D20696E747072692026260C
S315080044FC20696E74707269203C3D20544D41585F9A
S3150800450C494E5450524900000A556E7265676973D4
S3150800451C746572656420457863657074696F6E207E
S3150800452C6F63637572732E004578636E6F203D203A
S3150800453C3078253038582C205043203D20307825AB
S3150800454C3038582C2058505352203D20307825307E
S3150800455C38582C206969706D203D20307825303804
S3150800456C582C20705F657863696E66203D2030781C
S3150800457C25303858000000000A556E726567697355
S3150800458C746572656420496E7465727275707420F0
S3150800459C6F63637572732E000000000018ED00E05F
S315080045AC1CED00E020ED00E02E2E2F2E2E2F617331
S315080045BC702F6B65726E656C2F7461736B2E63004E
S315080045CC6269746D617020213D2030550000000031
S315080045DC2E2E2F2E2E2F6173702F696E636C7564B9
S315080045EC652F71756575652E68000000705F7175AD
S315080045FC6575652D3E705F70726576203D3D207041
S3150800460C5F71756575650000000100020001000305
S3150800461C00010002000100002E2E2F2E2E2F617392
S3150800462C702F6B65726E656C2F74696D655F657638
S3150800463C656E742E6300000073656E73655F636F39
S3150800464C6E7465787428290021695F73656E7365C5
S3150800465C5F6C6F636B2829002E2E2F2E2E2F6173FD
S3150800466C702F6B65726E656C2F776169742E680096
S3150800467C54535441545F57414954494E4728705F27
S3110800468C7463622D3E7473746174290017
S30D080046980024F40000000240B2
S705080001955C
